{
  "_format": "hh-sol-artifact-1",
  "contractName": "CardDetailsContract",
  "sourceName": "contracts/CardDetailsContract.sol",
  "abi": [
    {
      "inputs": [],
      "stateMutability": "nonpayable",
      "type": "constructor"
    },
    {
      "inputs": [
        {
          "internalType": "string",
          "name": "_cardID",
          "type": "string"
        }
      ],
      "name": "deleteCard",
      "outputs": [
        {
          "internalType": "bool",
          "name": "deleted",
          "type": "bool"
        }
      ],
      "stateMutability": "nonpayable",
      "type": "function"
    },
    {
      "inputs": [
        {
          "internalType": "bytes32[]",
          "name": "_cardIDs",
          "type": "bytes32[]"
        }
      ],
      "name": "getAllCardDetails",
      "outputs": [
        {
          "components": [
            {
              "internalType": "address",
              "name": "owner",
              "type": "address"
            },
            {
              "internalType": "string",
              "name": "cardID",
              "type": "string"
            },
            {
              "internalType": "string",
              "name": "cardHolderName",
              "type": "string"
            },
            {
              "internalType": "string",
              "name": "cardNumber",
              "type": "string"
            },
            {
              "internalType": "string",
              "name": "cvv",
              "type": "string"
            },
            {
              "internalType": "string",
              "name": "issueDate",
              "type": "string"
            },
            {
              "internalType": "string",
              "name": "expiryDate",
              "type": "string"
            },
            {
              "internalType": "string",
              "name": "bankName",
              "type": "string"
            },
            {
              "internalType": "string",
              "name": "cardHolderCnic",
              "type": "string"
            },
            {
              "internalType": "string",
              "name": "cardType",
              "type": "string"
            },
            {
              "internalType": "bool",
              "name": "isCardFreeze",
              "type": "bool"
            },
            {
              "internalType": "string",
              "name": "ownedBy",
              "type": "string"
            },
            {
              "internalType": "uint256",
              "name": "priorityNumber",
              "type": "uint256"
            },
            {
              "internalType": "bool",
              "name": "exists",
              "type": "bool"
            }
          ],
          "internalType": "struct CardDetailsContract.Card[]",
          "name": "",
          "type": "tuple[]"
        }
      ],
      "stateMutability": "view",
      "type": "function"
    },
    {
      "inputs": [],
      "name": "owner",
      "outputs": [
        {
          "internalType": "address",
          "name": "",
          "type": "address"
        }
      ],
      "stateMutability": "view",
      "type": "function"
    },
    {
      "inputs": [
        {
          "internalType": "string",
          "name": "_cardID",
          "type": "string"
        }
      ],
      "name": "retrieveCardDetails",
      "outputs": [
        {
          "components": [
            {
              "internalType": "address",
              "name": "owner",
              "type": "address"
            },
            {
              "internalType": "string",
              "name": "cardID",
              "type": "string"
            },
            {
              "internalType": "string",
              "name": "cardHolderName",
              "type": "string"
            },
            {
              "internalType": "string",
              "name": "cardNumber",
              "type": "string"
            },
            {
              "internalType": "string",
              "name": "cvv",
              "type": "string"
            },
            {
              "internalType": "string",
              "name": "issueDate",
              "type": "string"
            },
            {
              "internalType": "string",
              "name": "expiryDate",
              "type": "string"
            },
            {
              "internalType": "string",
              "name": "bankName",
              "type": "string"
            },
            {
              "internalType": "string",
              "name": "cardHolderCnic",
              "type": "string"
            },
            {
              "internalType": "string",
              "name": "cardType",
              "type": "string"
            },
            {
              "internalType": "bool",
              "name": "isCardFreeze",
              "type": "bool"
            },
            {
              "internalType": "string",
              "name": "ownedBy",
              "type": "string"
            },
            {
              "internalType": "uint256",
              "name": "priorityNumber",
              "type": "uint256"
            },
            {
              "internalType": "bool",
              "name": "exists",
              "type": "bool"
            }
          ],
          "internalType": "struct CardDetailsContract.Card",
          "name": "",
          "type": "tuple"
        }
      ],
      "stateMutability": "view",
      "type": "function"
    },
    {
      "inputs": [
        {
          "internalType": "string",
          "name": "_cardID",
          "type": "string"
        },
        {
          "components": [
            {
              "internalType": "string",
              "name": "cardNumber",
              "type": "string"
            },
            {
              "internalType": "string",
              "name": "cardHolderName",
              "type": "string"
            },
            {
              "internalType": "string",
              "name": "cvv",
              "type": "string"
            },
            {
              "internalType": "string",
              "name": "issueDate",
              "type": "string"
            },
            {
              "internalType": "string",
              "name": "expiryDate",
              "type": "string"
            },
            {
              "internalType": "string",
              "name": "bankName",
              "type": "string"
            },
            {
              "internalType": "string",
              "name": "cardHolderCnic",
              "type": "string"
            },
            {
              "internalType": "string",
              "name": "cardType",
              "type": "string"
            },
            {
              "internalType": "bool",
              "name": "isCardFreeze",
              "type": "bool"
            },
            {
              "internalType": "string",
              "name": "ownedBy",
              "type": "string"
            },
            {
              "internalType": "uint256",
              "name": "priorityNumber",
              "type": "uint256"
            }
          ],
          "internalType": "struct CardDetailsContract.CardParams",
          "name": "_params",
          "type": "tuple"
        }
      ],
      "name": "storeCardDetails",
      "outputs": [
        {
          "components": [
            {
              "internalType": "address",
              "name": "owner",
              "type": "address"
            },
            {
              "internalType": "string",
              "name": "cardID",
              "type": "string"
            },
            {
              "internalType": "string",
              "name": "cardHolderName",
              "type": "string"
            },
            {
              "internalType": "string",
              "name": "cardNumber",
              "type": "string"
            },
            {
              "internalType": "string",
              "name": "cvv",
              "type": "string"
            },
            {
              "internalType": "string",
              "name": "issueDate",
              "type": "string"
            },
            {
              "internalType": "string",
              "name": "expiryDate",
              "type": "string"
            },
            {
              "internalType": "string",
              "name": "bankName",
              "type": "string"
            },
            {
              "internalType": "string",
              "name": "cardHolderCnic",
              "type": "string"
            },
            {
              "internalType": "string",
              "name": "cardType",
              "type": "string"
            },
            {
              "internalType": "bool",
              "name": "isCardFreeze",
              "type": "bool"
            },
            {
              "internalType": "string",
              "name": "ownedBy",
              "type": "string"
            },
            {
              "internalType": "uint256",
              "name": "priorityNumber",
              "type": "uint256"
            },
            {
              "internalType": "bool",
              "name": "exists",
              "type": "bool"
            }
          ],
          "internalType": "struct CardDetailsContract.Card",
          "name": "",
          "type": "tuple"
        }
      ],
      "stateMutability": "nonpayable",
      "type": "function"
    }
  ],
  "bytecode": "0x608060405234801561001057600080fd5b50336000806101000a81548173ffffffffffffffffffffffffffffffffffffffff021916908373ffffffffffffffffffffffffffffffffffffffff160217905550613063806100606000396000f3fe608060405234801561001057600080fd5b50600436106100575760003560e01c8063163bc9831461005c5780637fc92bf91461008c5780638da5cb5b146100bc578063ba5c4118146100da578063ec17eaa81461010a575b600080fd5b610076600480360381019061007191906124f5565b61013a565b6040516100839190612b00565b60405180910390f35b6100a660048036038101906100a191906124ac565b610b81565b6040516100b39190612a65565b60405180910390f35b6100c4610da1565b6040516100d19190612a28565b60405180910390f35b6100f460048036038101906100ef9190612463565b610dc5565b6040516101019190612a43565b60405180910390f35b610124600480360381019061011f91906124ac565b611688565b6040516101319190612b00565b60405180910390f35b610142611fa2565b60008054906101000a900473ffffffffffffffffffffffffffffffffffffffff1673ffffffffffffffffffffffffffffffffffffffff163373ffffffffffffffffffffffffffffffffffffffff16146101d0576040517f08c379a00000000000000000000000000000000000000000000000000000000081526004016101c790612ae0565b60405180910390fd5b6000835111610214576040517f08c379a000000000000000000000000000000000000000000000000000000000815260040161020b90612ac0565b60405180910390fd5b6001836040516102249190612a11565b9081526020016040518091039020600d0160009054906101000a900460ff1615610283576040517f08c379a000000000000000000000000000000000000000000000000000000000815260040161027a90612a80565b60405180910390fd5b604051806101c001604052803373ffffffffffffffffffffffffffffffffffffffff16815260200184815260200183602001518152602001836000015181526020018360400151815260200183606001518152602001836080015181526020018360a0015181526020018360c0015181526020018360e00151815260200183610100015115158152602001836101200151815260200183610140015181526020016001151581525060018460405161033b9190612a11565b908152602001604051809103902060008201518160000160006101000a81548173ffffffffffffffffffffffffffffffffffffffff021916908373ffffffffffffffffffffffffffffffffffffffff16021790555060208201518160010190805190602001906103ac92919061202b565b5060408201518160020190805190602001906103c992919061202b565b5060608201518160030190805190602001906103e692919061202b565b50608082015181600401908051906020019061040392919061202b565b5060a082015181600501908051906020019061042092919061202b565b5060c082015181600601908051906020019061043d92919061202b565b5060e082015181600701908051906020019061045a92919061202b565b5061010082015181600801908051906020019061047892919061202b565b5061012082015181600901908051906020019061049692919061202b565b5061014082015181600a0160006101000a81548160ff02191690831515021790555061016082015181600b0190805190602001906104d592919061202b565b5061018082015181600c01556101a082015181600d0160006101000a81548160ff0219169083151502179055509050506001836040516105159190612a11565b9081526020016040518091039020604051806101c00160405290816000820160009054906101000a900473ffffffffffffffffffffffffffffffffffffffff1673ffffffffffffffffffffffffffffffffffffffff1673ffffffffffffffffffffffffffffffffffffffff16815260200160018201805461059590612d0c565b80601f01602080910402602001604051908101604052809291908181526020018280546105c190612d0c565b801561060e5780601f106105e35761010080835404028352916020019161060e565b820191906000526020600020905b8154815290600101906020018083116105f157829003601f168201915b5050505050815260200160028201805461062790612d0c565b80601f016020809104026020016040519081016040528092919081815260200182805461065390612d0c565b80156106a05780601f10610675576101008083540402835291602001916106a0565b820191906000526020600020905b81548152906001019060200180831161068357829003601f168201915b505050505081526020016003820180546106b990612d0c565b80601f01602080910402602001604051908101604052809291908181526020018280546106e590612d0c565b80156107325780601f1061070757610100808354040283529160200191610732565b820191906000526020600020905b81548152906001019060200180831161071557829003601f168201915b5050505050815260200160048201805461074b90612d0c565b80601f016020809104026020016040519081016040528092919081815260200182805461077790612d0c565b80156107c45780601f10610799576101008083540402835291602001916107c4565b820191906000526020600020905b8154815290600101906020018083116107a757829003601f168201915b505050505081526020016005820180546107dd90612d0c565b80601f016020809104026020016040519081016040528092919081815260200182805461080990612d0c565b80156108565780601f1061082b57610100808354040283529160200191610856565b820191906000526020600020905b81548152906001019060200180831161083957829003601f168201915b5050505050815260200160068201805461086f90612d0c565b80601f016020809104026020016040519081016040528092919081815260200182805461089b90612d0c565b80156108e85780601f106108bd576101008083540402835291602001916108e8565b820191906000526020600020905b8154815290600101906020018083116108cb57829003601f168201915b5050505050815260200160078201805461090190612d0c565b80601f016020809104026020016040519081016040528092919081815260200182805461092d90612d0c565b801561097a5780601f1061094f5761010080835404028352916020019161097a565b820191906000526020600020905b81548152906001019060200180831161095d57829003601f168201915b5050505050815260200160088201805461099390612d0c565b80601f01602080910402602001604051908101604052809291908181526020018280546109bf90612d0c565b8015610a0c5780601f106109e157610100808354040283529160200191610a0c565b820191906000526020600020905b8154815290600101906020018083116109ef57829003601f168201915b50505050508152602001600982018054610a2590612d0c565b80601f0160208091040260200160405190810160405280929190818152602001828054610a5190612d0c565b8015610a9e5780601f10610a7357610100808354040283529160200191610a9e565b820191906000526020600020905b815481529060010190602001808311610a8157829003601f168201915b50505050508152602001600a820160009054906101000a900460ff16151515158152602001600b82018054610ad290612d0c565b80601f0160208091040260200160405190810160405280929190818152602001828054610afe90612d0c565b8015610b4b5780601f10610b2057610100808354040283529160200191610b4b565b820191906000526020600020905b815481529060010190602001808311610b2e57829003601f168201915b50505050508152602001600c8201548152602001600d820160009054906101000a900460ff161515151581525050905092915050565b60008060009054906101000a900473ffffffffffffffffffffffffffffffffffffffff1673ffffffffffffffffffffffffffffffffffffffff163373ffffffffffffffffffffffffffffffffffffffff1614610c12576040517f08c379a0000000000000000000000000000000000000000000000000000000008152600401610c0990612ae0565b60405180910390fd5b600182604051610c229190612a11565b9081526020016040518091039020600d0160009054906101000a900460ff16610c80576040517f08c379a0000000000000000000000000000000000000000000000000000000008152600401610c7790612aa0565b60405180910390fd5b600182604051610c909190612a11565b9081526020016040518091039020600080820160006101000a81549073ffffffffffffffffffffffffffffffffffffffff0219169055600182016000610cd691906120b1565b600282016000610ce691906120b1565b600382016000610cf691906120b1565b600482016000610d0691906120b1565b600582016000610d1691906120b1565b600682016000610d2691906120b1565b600782016000610d3691906120b1565b600882016000610d4691906120b1565b600982016000610d5691906120b1565b600a820160006101000a81549060ff0219169055600b82016000610d7a91906120b1565b600c820160009055600d820160006101000a81549060ff0219169055505060019050919050565b60008054906101000a900473ffffffffffffffffffffffffffffffffffffffff1681565b606060008054906101000a900473ffffffffffffffffffffffffffffffffffffffff1673ffffffffffffffffffffffffffffffffffffffff163373ffffffffffffffffffffffffffffffffffffffff1614610e55576040517f08c379a0000000000000000000000000000000000000000000000000000000008152600401610e4c90612ae0565b60405180910390fd5b60008067ffffffffffffffff811115610e7157610e70612e6f565b5b604051908082528060200260200182016040528015610eaa57816020015b610e97611fa2565b815260200190600190039081610e8f5790505b50905060005b835181101561167e576000610ede858381518110610ed157610ed0612e40565b5b6020026020010151611e07565b9050600181604051610ef09190612a11565b9081526020016040518091039020600d0160009054906101000a900460ff161561166a57600060018451610f249190612c15565b67ffffffffffffffff811115610f3d57610f3c612e6f565b5b604051908082528060200260200182016040528015610f7657816020015b610f63611fa2565b815260200190600190039081610f5b5790505b50905060005b8451811015610fd157848181518110610f9857610f97612e40565b5b6020026020010151828281518110610fb357610fb2612e40565b5b60200260200101819052508080610fc990612d6f565b915050610f7c565b50600182604051610fe29190612a11565b9081526020016040518091039020604051806101c00160405290816000820160009054906101000a900473ffffffffffffffffffffffffffffffffffffffff1673ffffffffffffffffffffffffffffffffffffffff1673ffffffffffffffffffffffffffffffffffffffff16815260200160018201805461106290612d0c565b80601f016020809104026020016040519081016040528092919081815260200182805461108e90612d0c565b80156110db5780601f106110b0576101008083540402835291602001916110db565b820191906000526020600020905b8154815290600101906020018083116110be57829003601f168201915b505050505081526020016002820180546110f490612d0c565b80601f016020809104026020016040519081016040528092919081815260200182805461112090612d0c565b801561116d5780601f106111425761010080835404028352916020019161116d565b820191906000526020600020905b81548152906001019060200180831161115057829003601f168201915b5050505050815260200160038201805461118690612d0c565b80601f01602080910402602001604051908101604052809291908181526020018280546111b290612d0c565b80156111ff5780601f106111d4576101008083540402835291602001916111ff565b820191906000526020600020905b8154815290600101906020018083116111e257829003601f168201915b5050505050815260200160048201805461121890612d0c565b80601f016020809104026020016040519081016040528092919081815260200182805461124490612d0c565b80156112915780601f1061126657610100808354040283529160200191611291565b820191906000526020600020905b81548152906001019060200180831161127457829003601f168201915b505050505081526020016005820180546112aa90612d0c565b80601f01602080910402602001604051908101604052809291908181526020018280546112d690612d0c565b80156113235780601f106112f857610100808354040283529160200191611323565b820191906000526020600020905b81548152906001019060200180831161130657829003601f168201915b5050505050815260200160068201805461133c90612d0c565b80601f016020809104026020016040519081016040528092919081815260200182805461136890612d0c565b80156113b55780601f1061138a576101008083540402835291602001916113b5565b820191906000526020600020905b81548152906001019060200180831161139857829003601f168201915b505050505081526020016007820180546113ce90612d0c565b80601f01602080910402602001604051908101604052809291908181526020018280546113fa90612d0c565b80156114475780601f1061141c57610100808354040283529160200191611447565b820191906000526020600020905b81548152906001019060200180831161142a57829003601f168201915b5050505050815260200160088201805461146090612d0c565b80601f016020809104026020016040519081016040528092919081815260200182805461148c90612d0c565b80156114d95780601f106114ae576101008083540402835291602001916114d9565b820191906000526020600020905b8154815290600101906020018083116114bc57829003601f168201915b505050505081526020016009820180546114f290612d0c565b80601f016020809104026020016040519081016040528092919081815260200182805461151e90612d0c565b801561156b5780601f106115405761010080835404028352916020019161156b565b820191906000526020600020905b81548152906001019060200180831161154e57829003601f168201915b50505050508152602001600a820160009054906101000a900460ff16151515158152602001600b8201805461159f90612d0c565b80601f01602080910402602001604051908101604052809291908181526020018280546115cb90612d0c565b80156116185780601f106115ed57610100808354040283529160200191611618565b820191906000526020600020905b8154815290600101906020018083116115fb57829003601f168201915b50505050508152602001600c8201548152602001600d820160009054906101000a900460ff1615151515815250508185518151811061165a57611659612e40565b5b6020026020010181905250809350505b50808061167690612d6f565b915050610eb0565b5080915050919050565b611690611fa2565b60008054906101000a900473ffffffffffffffffffffffffffffffffffffffff1673ffffffffffffffffffffffffffffffffffffffff163373ffffffffffffffffffffffffffffffffffffffff161461171e576040517f08c379a000000000000000000000000000000000000000000000000000000000815260040161171590612ae0565b60405180910390fd5b60018260405161172e9190612a11565b9081526020016040518091039020600d0160009054906101000a900460ff1661178c576040517f08c379a000000000000000000000000000000000000000000000000000000000815260040161178390612aa0565b60405180910390fd5b60018260405161179c9190612a11565b9081526020016040518091039020604051806101c00160405290816000820160009054906101000a900473ffffffffffffffffffffffffffffffffffffffff1673ffffffffffffffffffffffffffffffffffffffff1673ffffffffffffffffffffffffffffffffffffffff16815260200160018201805461181c90612d0c565b80601f016020809104026020016040519081016040528092919081815260200182805461184890612d0c565b80156118955780601f1061186a57610100808354040283529160200191611895565b820191906000526020600020905b81548152906001019060200180831161187857829003601f168201915b505050505081526020016002820180546118ae90612d0c565b80601f01602080910402602001604051908101604052809291908181526020018280546118da90612d0c565b80156119275780601f106118fc57610100808354040283529160200191611927565b820191906000526020600020905b81548152906001019060200180831161190a57829003601f168201915b5050505050815260200160038201805461194090612d0c565b80601f016020809104026020016040519081016040528092919081815260200182805461196c90612d0c565b80156119b95780601f1061198e576101008083540402835291602001916119b9565b820191906000526020600020905b81548152906001019060200180831161199c57829003601f168201915b505050505081526020016004820180546119d290612d0c565b80601f01602080910402602001604051908101604052809291908181526020018280546119fe90612d0c565b8015611a4b5780601f10611a2057610100808354040283529160200191611a4b565b820191906000526020600020905b815481529060010190602001808311611a2e57829003601f168201915b50505050508152602001600582018054611a6490612d0c565b80601f0160208091040260200160405190810160405280929190818152602001828054611a9090612d0c565b8015611add5780601f10611ab257610100808354040283529160200191611add565b820191906000526020600020905b815481529060010190602001808311611ac057829003601f168201915b50505050508152602001600682018054611af690612d0c565b80601f0160208091040260200160405190810160405280929190818152602001828054611b2290612d0c565b8015611b6f5780601f10611b4457610100808354040283529160200191611b6f565b820191906000526020600020905b815481529060010190602001808311611b5257829003601f168201915b50505050508152602001600782018054611b8890612d0c565b80601f0160208091040260200160405190810160405280929190818152602001828054611bb490612d0c565b8015611c015780601f10611bd657610100808354040283529160200191611c01565b820191906000526020600020905b815481529060010190602001808311611be457829003601f168201915b50505050508152602001600882018054611c1a90612d0c565b80601f0160208091040260200160405190810160405280929190818152602001828054611c4690612d0c565b8015611c935780601f10611c6857610100808354040283529160200191611c93565b820191906000526020600020905b815481529060010190602001808311611c7657829003601f168201915b50505050508152602001600982018054611cac90612d0c565b80601f0160208091040260200160405190810160405280929190818152602001828054611cd890612d0c565b8015611d255780601f10611cfa57610100808354040283529160200191611d25565b820191906000526020600020905b815481529060010190602001808311611d0857829003601f168201915b50505050508152602001600a820160009054906101000a900460ff16151515158152602001600b82018054611d5990612d0c565b80601f0160208091040260200160405190810160405280929190818152602001828054611d8590612d0c565b8015611dd25780601f10611da757610100808354040283529160200191611dd2565b820191906000526020600020905b815481529060010190602001808311611db557829003601f168201915b50505050508152602001600c8201548152602001600d820160009054906101000a900460ff1615151515815250509050919050565b606060005b60208160ff16108015611e5e5750600060f81b838260ff1660208110611e3557611e34612e40565b5b1a60f81b7effffffffffffffffffffffffffffffffffffffffffffffffffffffffffffff191614155b15611e76578080611e6e90612db8565b915050611e0c565b60008160ff1667ffffffffffffffff811115611e9557611e94612e6f565b5b6040519080825280601f01601f191660200182016040528015611ec75781602001600182028036833780820191505090505b509050600091505b60208260ff16108015611f215750600060f81b848360ff1660208110611ef857611ef7612e40565b5b1a60f81b7effffffffffffffffffffffffffffffffffffffffffffffffffffffffffffff191614155b15611f9857838260ff1660208110611f3c57611f3b612e40565b5b1a60f81b818360ff1681518110611f5657611f55612e40565b5b60200101907effffffffffffffffffffffffffffffffffffffffffffffffffffffffffffff1916908160001a9053508180611f9090612db8565b925050611ecf565b8092505050919050565b604051806101c00160405280600073ffffffffffffffffffffffffffffffffffffffff16815260200160608152602001606081526020016060815260200160608152602001606081526020016060815260200160608152602001606081526020016060815260200160001515815260200160608152602001600081526020016000151581525090565b82805461203790612d0c565b90600052602060002090601f01602090048101928261205957600085556120a0565b82601f1061207257805160ff19168380011785556120a0565b828001600101855582156120a0579182015b8281111561209f578251825591602001919060010190612084565b5b5090506120ad91906120f1565b5090565b5080546120bd90612d0c565b6000825580601f106120cf57506120ee565b601f0160209004906000526020600020908101906120ed91906120f1565b5b50565b5b8082111561210a5760008160009055506001016120f2565b5090565b600061212161211c84612b47565b612b22565b9050808382526020820190508285602086028201111561214457612143612ead565b5b60005b85811015612174578161215a8882612203565b845260208401935060208301925050600181019050612147565b5050509392505050565b600061219161218c84612b73565b612b22565b9050828152602081018484840111156121ad576121ac612eb2565b5b6121b8848285612cca565b509392505050565b600082601f8301126121d5576121d4612e9e565b5b81356121e584826020860161210e565b91505092915050565b6000813590506121fd81612fe8565b92915050565b60008135905061221281612fff565b92915050565b600082601f83011261222d5761222c612e9e565b5b813561223d84826020860161217e565b91505092915050565b6000610160828403121561225d5761225c612ea3565b5b612268610160612b22565b9050600082013567ffffffffffffffff81111561228857612287612ea8565b5b61229484828501612218565b600083015250602082013567ffffffffffffffff8111156122b8576122b7612ea8565b5b6122c484828501612218565b602083015250604082013567ffffffffffffffff8111156122e8576122e7612ea8565b5b6122f484828501612218565b604083015250606082013567ffffffffffffffff81111561231857612317612ea8565b5b61232484828501612218565b606083015250608082013567ffffffffffffffff81111561234857612347612ea8565b5b61235484828501612218565b60808301525060a082013567ffffffffffffffff81111561237857612377612ea8565b5b61238484828501612218565b60a08301525060c082013567ffffffffffffffff8111156123a8576123a7612ea8565b5b6123b484828501612218565b60c08301525060e082013567ffffffffffffffff8111156123d8576123d7612ea8565b5b6123e484828501612218565b60e0830152506101006123f9848285016121ee565b6101008301525061012082013567ffffffffffffffff81111561241f5761241e612ea8565b5b61242b84828501612218565b610120830152506101406124418482850161244e565b6101408301525092915050565b60008135905061245d81613016565b92915050565b60006020828403121561247957612478612ebc565b5b600082013567ffffffffffffffff81111561249757612496612eb7565b5b6124a3848285016121c0565b91505092915050565b6000602082840312156124c2576124c1612ebc565b5b600082013567ffffffffffffffff8111156124e0576124df612eb7565b5b6124ec84828501612218565b91505092915050565b6000806040838503121561250c5761250b612ebc565b5b600083013567ffffffffffffffff81111561252a57612529612eb7565b5b61253685828601612218565b925050602083013567ffffffffffffffff81111561255757612556612eb7565b5b61256385828601612246565b9150509250929050565b60006125798383612728565b905092915050565b61258a81612c6b565b82525050565b61259981612c6b565b82525050565b60006125aa82612bb4565b6125b48185612bd7565b9350836020820285016125c685612ba4565b8060005b8581101561260257848403895281516125e3858261256d565b94506125ee83612bca565b925060208a019950506001810190506125ca565b50829750879550505050505092915050565b61261d81612c7d565b82525050565b61262c81612c7d565b82525050565b600061263d82612bbf565b6126478185612be8565b9350612657818560208601612cd9565b61266081612ec1565b840191505092915050565b600061267682612bbf565b6126808185612c0a565b9350612690818560208601612cd9565b80840191505092915050565b60006126a9602c83612bf9565b91506126b482612ed2565b604082019050919050565b60006126cc602783612bf9565b91506126d782612f21565b604082019050919050565b60006126ef601a83612bf9565b91506126fa82612f70565b602082019050919050565b6000612712602f83612bf9565b915061271d82612f99565b604082019050919050565b60006101c0830160008301516127416000860182612581565b50602083015184820360208601526127598282612632565b915050604083015184820360408601526127738282612632565b9150506060830151848203606086015261278d8282612632565b915050608083015184820360808601526127a78282612632565b91505060a083015184820360a08601526127c18282612632565b91505060c083015184820360c08601526127db8282612632565b91505060e083015184820360e08601526127f58282612632565b9150506101008301518482036101008601526128118282612632565b91505061012083015184820361012086015261282d8282612632565b915050610140830151612844610140860182612614565b5061016083015184820361016086015261285e8282612632565b915050610180830151612875610180860182612a02565b506101a083015161288a6101a0860182612614565b508091505092915050565b60006101c0830160008301516128ae6000860182612581565b50602083015184820360208601526128c68282612632565b915050604083015184820360408601526128e08282612632565b915050606083015184820360608601526128fa8282612632565b915050608083015184820360808601526129148282612632565b91505060a083015184820360a086015261292e8282612632565b91505060c083015184820360c08601526129488282612632565b91505060e083015184820360e08601526129628282612632565b91505061010083015184820361010086015261297e8282612632565b91505061012083015184820361012086015261299a8282612632565b9150506101408301516129b1610140860182612614565b506101608301518482036101608601526129cb8282612632565b9150506101808301516129e2610180860182612a02565b506101a08301516129f76101a0860182612614565b508091505092915050565b612a0b81612cb3565b82525050565b6000612a1d828461266b565b915081905092915050565b6000602082019050612a3d6000830184612590565b92915050565b60006020820190508181036000830152612a5d818461259f565b905092915050565b6000602082019050612a7a6000830184612623565b92915050565b60006020820190508181036000830152612a998161269c565b9050919050565b60006020820190508181036000830152612ab9816126bf565b9050919050565b60006020820190508181036000830152612ad9816126e2565b9050919050565b60006020820190508181036000830152612af981612705565b9050919050565b60006020820190508181036000830152612b1a8184612895565b905092915050565b6000612b2c612b3d565b9050612b388282612d3e565b919050565b6000604051905090565b600067ffffffffffffffff821115612b6257612b61612e6f565b5b602082029050602081019050919050565b600067ffffffffffffffff821115612b8e57612b8d612e6f565b5b612b9782612ec1565b9050602081019050919050565b6000819050602082019050919050565b600081519050919050565b600081519050919050565b6000602082019050919050565b600082825260208201905092915050565b600082825260208201905092915050565b600082825260208201905092915050565b600081905092915050565b6000612c2082612cb3565b9150612c2b83612cb3565b9250827fffffffffffffffffffffffffffffffffffffffffffffffffffffffffffffffff03821115612c6057612c5f612de2565b5b828201905092915050565b6000612c7682612c93565b9050919050565b60008115159050919050565b6000819050919050565b600073ffffffffffffffffffffffffffffffffffffffff82169050919050565b6000819050919050565b600060ff82169050919050565b82818337600083830152505050565b60005b83811015612cf7578082015181840152602081019050612cdc565b83811115612d06576000848401525b50505050565b60006002820490506001821680612d2457607f821691505b60208210811415612d3857612d37612e11565b5b50919050565b612d4782612ec1565b810181811067ffffffffffffffff82111715612d6657612d65612e6f565b5b80604052505050565b6000612d7a82612cb3565b91507fffffffffffffffffffffffffffffffffffffffffffffffffffffffffffffffff821415612dad57612dac612de2565b5b600182019050919050565b6000612dc382612cbd565b915060ff821415612dd757612dd6612de2565b5b600182019050919050565b7f4e487b7100000000000000000000000000000000000000000000000000000000600052601160045260246000fd5b7f4e487b7100000000000000000000000000000000000000000000000000000000600052602260045260246000fd5b7f4e487b7100000000000000000000000000000000000000000000000000000000600052603260045260246000fd5b7f4e487b7100000000000000000000000000000000000000000000000000000000600052604160045260246000fd5b600080fd5b600080fd5b600080fd5b600080fd5b600080fd5b600080fd5b600080fd5b6000601f19601f8301169050919050565b7f436172642064657461696c7320616c726561647920657869737420666f72207460008201527f68697320636172642049442e0000000000000000000000000000000000000000602082015250565b7f4e6f20636172642064657461696c7320666f756e6420666f722074686973206360008201527f6172642049442e00000000000000000000000000000000000000000000000000602082015250565b7f43617264204944206d757374206e6f7420626520656d7074792e000000000000600082015250565b7f4f6e6c792074686520636f6e7472616374206f776e65722063616e2063616c6c60008201527f20746869732066756e6374696f6e2e0000000000000000000000000000000000602082015250565b612ff181612c7d565b8114612ffc57600080fd5b50565b61300881612c89565b811461301357600080fd5b50565b61301f81612cb3565b811461302a57600080fd5b5056fea2646970667358221220156e00e5170bd38f2a8c02d6c551f8b779113b8be3ad450b1fcf0ddc7fed928b64736f6c63430008070033",
  "linkReferences": {},
  "deployedLinkReferences": {}
}